:100000009EC40000AEC40000ACC40000AAC400003E
:10001000A8C400000C94D630A4C400000C94830D36
:10002000A0C400009EC400000C94C4250C94C530EC
:100030000C94CA300C94A02594C4000092C4000013
:100040000C94A4308EC400008CC400008AC400004C
:1000500088C400000C94840D84C4000082C4000095
:1000600080C400007EC40000E62FF72F903009F412
:100070009395E5B8C4B8B6EFB0937A00A5E0A09325
:100080007B00A8E0A093810010928000AFEFA093C6
:100090008500A0938400A6E0A093360010928B0008
:1000A00010928A00B3E0AFE3A91B51E0392F33303F
:1000B0002AF0A05CBC4F53953350F9CFB093890020
:1000C000A0938800A0917A00A4FFFCCFB6EBB09378
:1000D0007A00A2E0A0936F00A9E0A093810062E003
:1000E000A0E0A0937B00A1E0A09353008895E5B821
:1000F000C4B884FF1AC0A8E10000AA95F1F7EF93F5
:10010000FF93E7B1F8B1A4E0C2FCA2E0C0FCA1E01B
:10011000BF2FBA2BAE2BB8B904B9A7B9E7B9F8B954
:10012000FF91EF910BC00C947300ACE10000000054
:10013000AA95F1F725B9E5B8000004B9A0918400AB
:10014000A0918500B0918900A395AB1760F7A091AD
:100150007A00A4FFF3CFB6EBB0937A006A9571F7FB
:100160006091780070917900308186FD630F619312
:10017000308186FD731F80FF7193652F4A9579F753
:1001800010926F0010928100B6E0B0937A0008954B
:10019000C801BF01B60118000720080808F80000D0
:1001A000002060A03FA06020020202FF02020210B5
:1001B00010101F0000000708FFDBBDB5B5CBFF071F
:1001C00008FFBB9DADADB3FF0708FFFFF7FB81FF45
:1001D000FF10100508F878385888091003081C3EED
:1001E0007F0D080710FF818181F1E1C1FF40404090
:1001F0004743410D080110FFFF11080310F1E1C151
:100200004743410E0008202121122060E0E0E0FE7B
:10021000FE0402010001037F7F21C2C4C4C04094D8
:10022000840007030102040E080210FEFE7F7F0017
:10023000000000110005202060E0E0E00201000164
:1002400003C2C4C4C0400703010204010410010238
:10025000043E4E656B616C6962726F76616E9021CF
:100260003C20416B20636863658D2076796B6F6EEF
:10027000618EFF6B616C6962728063697520737057
:100280006F6A20768D65746B792033206D6572619D
:10029000636965FF736F6E647920612073746C61AC
:1002A00082FF746C618286746B6F20544553542EA8
:1002B000204B616C69627280636975FF706F747640
:1002C00072832073746C6182656E866D20746C61BC
:1002D0008286746B61205445535420646F203273BE
:1002E0002E204E612076907A767520224F64706FB2
:1002F0006AFF736F6E64792122207A72758D207087
:100300007265706F6A656E6965206D65726163867E
:10031000636820736F6E642E204E612083616C8D44
:100320006975FF76907A767520223106030633FFD1
:100330003E3130306E46222CFF707269706F6A2039
:100340006D65647A69FF736F6E647920312C332098
:10035000646F627290206B6F6E64656E7A80746FEA
:1003600072207669616320616B6F203130306E4698
:100370002E20536F667477617265206120646F6B05
:10038000756D656E7480636961206A65206E612099
:100390006769746875622E636F6D2F6B756269345F
:1003A0003800B903870358032E030703E402C3028E
:1003B000A40288020000140029003E0053006900D6
:1003C00080009700AE00C600DF00F80012012D018A
:1003D000490165018201A001BE01DE01FF01210288
:1003E000440268028E02B502DE020903350364038B
:1003F0009403C803FE0337047304B404F9044305EB
:100400009305EA054906B3062907AE074808FF0821
:10041000DE09FD0A930C480F991B00000000000044
:10042000000000000000000000001E212121120039
:10043000807F0000007E4A4A4A340000000000002D
:10044000FC4020100804020100000001010101012C
:1004500001010101010101017F0488D0E0F0F800F1
:10046000000000000000000000000000000000008C
:1004700000FC94948400000102FC000000000000D5
:100480000000000000001E21212112E0C080402059
:10049000100F000000C020202040000000FC0000E1
:1004A0009E9E040303030302000000202023242552
:1004B00025232020203F00007B7B2142840480C034
:1004C0000000000000000000000000000000FC949C
:1004D000948400040607070708F0000000000000ED
:1004E00000000000000000803F2121120C000000ED
:1004F00000FF000000F0084848C80000FE0000E7C8
:10050000818181C1E1F181818101002020202121AF
:10051000212020203F0000F340404041434740401D
:100520007FC000000000000000000000000000008C
:10053000489494946400000000FF00000000000054
:10054000000000000000000000003F2121120C000C
:1005500000FF000000F0084848D000000000000044
:10056000FEFE040404040404040700080808090942
:100570000908087F3E1C08087F7F202020202020BB
:1005800020E000000000000000000000000000006B
:10059000000048949494640000FF000000000000F4
:1005A0000000000000FF003C0A090A3C002231293B
:1005B0002926000082868E9EBEFEFEBEDEEFF6FA83
:1005C000FEFEFAF2E2C28200000008080804027986
:1005D00084A4A46800FF00000000000000000000E8
:1005E00000000000000000000000000000FF00000C
:1005F000F0282428F0001008FC0000000000000093
:1006000000000000003C0A090A3C00FF0000000056
:100610000000000000000000000000000000040CCA
:100620001C3C7CFF7C3C1C0C040000000000009E75
:10063000A1A9A99A804323130B0703FF0303030314
:100640000303000000000000000000000078848424
:10065000844800FF000000000000000000F00804D3
:10066000E2110909090909090909091121C2040846
:1006700010E00000000102040407000000000080F8
:1006800040201088442310080403000000000000EC
:100690000000000000FE0100FC020100000000005C
:1006A000000000000000000000000000007949493F
:1006B00079000000000000000000403E4949365C1F
:1006C0006202625C807C40403C0002050200000047
:1006D000000000065F0600000600060000247E24DD
:1006E0007E24242A7F2A1263130864633649562025
:1006F00050000A060000003E41000000413E00009C
:1007000014083E081408083E080800A0600000080D
:1007100008080808006060000020100804023E512C
:1007200049453E00427F40006251494946224949BD
:1007300049361814127F102F494949313C4A49491A
:100740003001710905033649494936064949291ED0
:1007500000666600000056360000081422410014AE
:1007600014141414004122140802015909063249D4
:1007700079413E7C1211127C7F494949363E414104
:1007800041227F4141413E7F494949417F09090951
:10079000013E4149497A7F0808087F00417F4100B6
:1007A000304040403F7F081422417F404040407F1E
:1007B000020C027F7F0408107F3E4141413E7F09C9
:1007C0000909063E4151215E7F09091966264949FA
:1007D000493201017F01013F4040403F1F2040203E
:1007E0001F3F4038403F6314081463070870080730
:1007F0006151494543007F41410002040810200037
:1008000041417F0004020102044040404040000199
:1008100002040020545454383F4844443838444477
:100820004420384444483F3854545418087E090141
:1008300002085454543C7F0804047800007D4000B2
:100840004080847D007F1028440000007F40007CB1
:10085000047804787C0804047838444444387C14D0
:10086000141408081414187C047804040848545418
:100870005420043F4440203C4040207C1C20402029
:100880001C3C4030403C44281028440C1010503C84
:100890004464544C4400083E410000007F000000C6
:1008A000413E080010080810083C2623263C20542E
:1008B000565578205554557838454645283844458E
:1008C000447F3854565508385552550800007A412F
:1008D00000007E400100007F4003007C0506057893
:1008E00038444645383846454638047806050808F1
:1008F00055525520043E4445213C4042413C9CA079
:10090000623D006455564D00083E22223E08087F95
:100910003E1C087F7F081C3E7F087F7F00007F7F92
:100920003E222222222222222222223E08080808D7
:100930000808384058245840582458403808112492
:100940001FBECFEFD8E0DEBFCDBF21E0A0E0B1E019
:1009500001C01D92A63CB207E1F70E9440120C9420
:10096000893A4ECB5D98559A80FD5B9A80FF5B98E3
:10097000539A519A5A9867FD599A67FF59985A9A0B
:100980005A9866FD599A66FF59985A9A5A9865FD81
:10099000599A65FF59985A9A5A9864FD599A64FF72
:1009A00059985A9A5A9863FD599A63FF59985A9AD6
:1009B0005A9862FD599A62FF59985A9A5A9861FD5D
:1009C000599A61FF59985A9A5A9860FD599A60FF4E
:1009D00059985A9A5D9A5A985998089597FF09C05C
:1009E0008F939F938DE2B0D59F918F919095819534
:1009F0009F4F62E271E04AE050E00E94283AEFC562
:100A00000895ECDF01C0EADF80E29EC58DE29CC55F
:100A10008DE39AC5EF92FF920F931F93182F062F25
:100A2000F42E82E691E0E6D5EE24E0913D01F091CE
:100A30003E018685E81611F4812F09C08485E816E9
:100A400011F4802F04C08585E81611F48F2D7CD514
:100A5000E3948E2D833049F71F910F91FF90EF9013
:100A60000895EF92FF920F931F93182F062FF42EE5
:100A700080E090D488E691E0BDD5EE248E2DACD5F3
:100A8000C7DFE0913D01F0913E018685E81611F443
:100A9000812F09C08485E81611F4802F04C0858554
:100AA000E81611F48F2D50D5AFDFE3948E2D8330EF
:100AB00029F71F910F91FF90EF900895682F80E024
:100AC00092E0662309F491E0623009F481E0089530
:100AD0000F93082FEEEAF1E0880F880FE80FF11D61
:100AE00060817181828193816436710581059105F0
:100AF00068F42091200127FD09C0802FDFDF692FD6
:100B0000F3D16EEF23E04DE1ABD604C04FEF04E02C
:100B10002DE1C3D579DF0F910895863058F4EDE9C2
:100B2000F1E0E80FF11DE80FF11D8081918163E094
:100B3000B7D66ACF08951F93182F80917601882326
:100B400019F062DF80E000D590D389E591E052D5BD
:100B5000812F82958F70E1DF812F8F70DEDF1F91F3
:100B600008958091060182958F7019D080910601B9
:100B700083701CD080910601DECF0895E1E9F1E099
:100B8000E80FF11D0895CF93F9DF9081C681C91751
:100B900010F405D001C013D037DFCF910895EEDFF8
:100BA0008F93808119D58F9101C008958F9387E22B
:100BB00091E020D58F91E2DF86810EC50895DEDFBA
:100BC0008F93868109D58F9101C008958F9383E219
:100BD00091E010D58F91D2DF8081FEC4089503D0BB
:100BE00002D001D000D000D003D002D001D000D07C
:100BF00000D003D002D001D000D000D0A89503D0FF
:100C000002D001D000D000D003D002D001D000D05B
:100C100000D003D002D001D000D000D003D002D049
:100C200001D000D00000089582E090E0893C28F0D7
:100C3000885C48EC849FC0011124009709F4089552
:100C400040918100477019F0D9DF0197F6CF8130CC
:100C5000910519F002975EE303C057E180E090E050
:100C60004091B200450F4093B30042E040937000C2
:100C700047E043BF889546E043BF10927000A895B7
:100C8000DCCF8F9384E0D1DF06C08F93CDDF03C02C
:100C90008F9381E0CADF8F911F93182F10641093F8
:100CA0007C00E12FE07880912D01E81759F0E09366
:100CB0002D01AEDF8EE980937A0083E083BF8895B3
:100CC00082E083BF20E030E0A901E0E01FC08EE9B0
:100CD00080937A0083E083BF889582E083BF609130
:100CE000780070917900260F371F411D511DE430A7
:100CF00061F480912F01803041F084E0203038078A
:100D000020F417FD02C01068CACFEF5F80912C015C
:100D1000E817E8F2609130017091310117FF04C0CB
:100D200060912E0170912F0180E090E00E942B399C
:100D30002FEF33E040E050E00E946D39B901CA0165
:100D400020912C0130E040E050E00E946D39C90153
:100D50001F9108959B01281B390B50F0C90108957C
:100D6000BC0180913001909131016817790718F426
:100D7000861B970B089580E090E0089587E593E047
:100D80000E94633A2091340130913501280F391FB8
:100D9000209316013093170183E0283E380720F096
:100DA000C901885E934002C080E090E062E370E099
:100DB0000E944639683008F067E0E2EAF3E0E60FA7
:100DC000F11DE60FF11D459155912591359162E395
:100DD000681B421B530B649FC001659F900D11243B
:100DE000499662E370E00E944639620F731F709368
:100DF0007A016093790189E593E00E945B3A992733
:100E000087FD90956091340170913501860F971F91
:100E100090932F0180932E0190937501809374011C
:100E200008950F9221E08C32920710F48CE291E049
:100E30008C52914069E170E00E94463999E16B3231
:100E400010F0982F6BE2981BE4EDF2E0E60FF11D35
:100E5000E60FF11D9F93CF010E945B3A482F319618
:100E6000CF010E945B3A582F3196CF010E945B3A26
:100E7000282F3196CF010E945B3A382F6F91421B89
:100E8000530B649FC001659F900D11240C9669E17E
:100E900070E00E944639620F731FCB010F900895D6
:100EA000CF93DF9324E130E0B9010E944639DC01A1
:100EB000E4EBF3E0E60FF71FE60FF71FC591D591BE
:100EC000459155914C1B5D0B4A9FC0014B9F900D66
:100ED0005A9F900D1124B9010E9446396C0F7D1F55
:100EE000CB01DF91CF910895AEE1B0E0EAE7F7E002
:100EF0000C94D039662EB82E860F898320911A0162
:100F0000283059F520917F01309180014091810175
:100F10005091820157FD15C010918E0109C0CA0180
:100F2000B9012AE0312D412D512D0E946D391F5FED
:100F3000173FACF391F4243160E0360741055105C9
:100F400018F48FEF9FEF42C1173F39F480E0281764
:100F50008DE738074105410510F020E03DE72C8B77
:100F60003D8B26EDA22EEEE4F2E0E60DF11D85911B
:100F700080608E87EEE4F2E0EB0DF11D85918060DC
:100F80008F87EBE4F2E0E60DF11D7590EBE4F2E003
:100F9000EB0DF11DC59090EC692AB92A81E0E82E8D
:100FA000F12C012D112D8E831F82188619861A8629
:100FB0001B861C861D86188E198E1B8E1A8E0E940B
:100FC000ED2180E088B960927C0022DE3F8537B950
:100FD00075B874B852E05A95F1F70000000014B8E3
:100FE00015B8DD243E8537B975B874B860927C00B9
:100FF000A895A0927A0080917A0086FDFCCF20907F
:10100000780030907900B0927C004C2DE3D0209194
:10101000780030917900288B398B3F8537B9C5B876
:10102000C4B8A895B0927C00A0927A0080917A0012
:1010300086FDFCCF609178007091790060927C0011
:10104000472DC8D0409178005091790014B8CB0159
:10105000820D931DE80EF91E011D111DEA82FB820F
:101060000C831D8388899989840F951F2E813F8168
:1010700068857985280F391F611D711D2E833F8377
:101080006887798722E32417150648F075B874B885
:10109000C9DD14B815B8888D8395888F07C0483E80
:1010A00073E0570718F08A8D83958A8F888999890C
:1010B0002817190658F03E8537B9C5B8C4B8B2DD4F
:1010C00014B815B8898D8395898F07C0883E73E061
:1010D000970718F08B8D83958B8FD3945D2D5F3F91
:1010E00049F05F3731F45C2D550FC50E572D550F64
:1010F000750E78CF4090390150903A01440C551C40
:101100009201E4E0240D351DEA95E1F7290157012C
:1011100068016E807F808884998420911A0128302C
:10112000C1F46C897D89812D912D6550704080407E
:1011300090409B01AC010E942B399B01AC0160E700
:1011400079E786E190E00E946D39621A730A840A99
:10115000950AA614B704C804D90428F46A187B08B1
:101160008C089D0803C0662477244301B20180E007
:1011700090E09301A4010E942B399501A6010E94E1
:101180006D398FE293E07981870F911D0E945B3A60
:10119000682EC90160E170E00E944639260F371FB2
:1011A000C9016816190618F4861991090FC08C5EDA
:1011B0009F4F8615910540F48C899D89843981E182
:1011C000980710F00E94E711812D912D6E96E2E1B3
:1011D0000C94EC39109281001092800010926F00F4
:1011E00010928B0010928A0057E056BB5FEF50932D
:1011F00085005093840055E050937B0056EB50934C
:101200007A0051E05093810058E25A95F1F70000BE
:1012100045B944B955E05A95F1F7000014B815B82E
:101220001092810080917A0084FFFCCF80937A0035
:101230000895CF93C82F1C1614F0CF910895E4DBC6
:10124000C150F9CF962F60933C01809303018093A6
:10125000AD01660F690F660F609304010895109247
:10126000AD0160E080E0EECF089581E08093AD01B4
:1012700060E0E8CF089582E08093AD0160E0E2CFC6
:10128000089583E08093AD0160E0DCCF0895809104
:101290003C01809301018091AD018093020108958A
:1012A0006091010180910201CDCF0895682F80E007
:1012B00059CB08958EEAFADF85EAF8CF0895CF93E7
:1012C000DF93C0E080E1F2DF80E0F0DF8C2F806B05
:1012D000EDDFD4E860E081E045DBD150D9F7CF5FA6
:1012E000C83081F7BCDFDF91CF9108955C985A98A0
:1012F00059985D98549A529A519A559A8EDC5D9AF3
:10130000559A5B98539A84E190DC5C9A84E18DDC79
:101310008EEACCDF82EECADF82EAC8DF80EAC6DF6F
:1013200080ECC4DF8FE2C2DF84E2C0DF81E8BEDF91
:101330008EE293E00E945B3A8F73B8DF80E4B6DF01
:1013400084EAB4DF86EAB2DFBADF8FEAAFDF60E0BB
:1013500080E078CF089590913C0185E1891B69CFA9
:101360000895CF93C82FF7DF9091AD019F5F9093C1
:10137000AD01983060F087E08093AD0181E080930B
:101380003F016C2F8091AD015DDFCF9108951092E8
:101390003F01F7CFE6DF8EC3089561DFDCDF5FCF6B
:1013A000089563DFD8DF61CF0895582F28E030E03B
:1013B00090E841E080E0652F642309F0892B440F19
:1013C000969521503109B9F70895A3E0B0E0EBEE0E
:1013D000F9E00C94D3398A839B83162F742EC02E88
:1013E000D12CC601860F911D81389105D4F54E0D83
:1013F0005527551FCA01413451059CF576947694C2
:101400007694019733E0959587953A95E1F7522FB9
:101410005270552E21FF10C0E82FE719FF0BEC9DED
:10142000A001ED9D500DFC9D500D11246A817B8122
:10143000640F751F7B836A83682E77E0781710F43A
:1014400087E0682E812F82958F70806189831F705D
:10145000022F0170671448F4809103018F70806B34
:1014600025DF2396EFE00C94EF39872D806B1EDF8C
:1014700089811CDF812F1ADFAA80BB80AC0CBD1CC8
:1014800075018A809B804A815B814E155F0549F416
:10149000552019F05A01AC18BD087394BB82AA827A
:1014A000D9CFC70101977C01FC01011101C0F401F2
:1014B000849151107ADF682F81E054DAFFEF8F1AA0
:1014C0009F0AE1CFEF920F93282F8F7330E6839F0F
:1014D000C0011124865E9B4F38E026FF38E430932C
:1014E00005011092000127FD08C02091050130E29E
:1014F000309300012D5E2093050120E2E22E08E1E9
:1015000020E040910001609105015FDF0F91EF90B5
:101510000895EF920F93DC01262FFC016491319620
:101520004491319604913196E490E09100014E0F80
:1015300080910501680FCD01049647DF0F91EF9070
:10154000089560E0E6CF0895EF920F9390913C01EB
:101550009F5F90933C01282F30E040910301440F9E
:10156000440F440F609104018C30A0F426E0829F68
:10157000C001112438E0E32E06E020E0885F964F9A
:1015800024DF809104018A5F80930401A8950F9164
:10159000EF9008952C51310955E0529FC001539F9F
:1015A000900D112428E0E22E05E020E08654994FAA
:1015B0000CDF609104016B5F6093040140910301B3
:1015C000440F440F440F01E020E08EEC96E0FDDE76
:1015D000809104018F5FD8CF8F5CB6CF0895CF93F1
:1015E000DF93EC018991811103C0DF91CF910895C0
:1015F000ABDFF8CFCF93DF93EC01CE010E945B3AD3
:10160000882319F0A1DF2196F8CFDF91CF910895BB
:10161000EF920F93FC0104913196E4900296D5DE8F
:101620000F91EF9008950F93CF93DF9300D000D0E8
:10163000CDB7DEB780E891E0DDDF40918D014D3F11
:10164000ACF480917B0190917C01A0917D01B091DF
:101650007E0103E026E4BC01CD011FD00F900F9066
:101660000F900F90DF91CF910F9108958FE36CDF72
:10167000F5CF909119019F70923071F48BDE84E662
:1016800090E0B8DFE0913D01F0913E0122E04DE1B4
:101690006FEF84819581E4C00895A2E1B0E0E3E5B5
:1016A000FBE00C94D239942EB22EA02E6B017C015B
:1016B0000F7080E389838A838B838C838D838E83F1
:1016C000F7FE3BC0A3D9F094E094D094C094C11C21
:1016D000D11CE11CF11C48EE442E43E0542E612C39
:1016E000712C033009F442C030E1432E37E2532E0F
:1016F000612C712C0430D1F120EA422E26E8522EC2
:1017000066246394712C053089F190E4492E92E4AB
:10171000592E9FE0692E712C063041F154E6452E7A
:10172000512C612C712C073009F580E8482E86E990
:10173000582E88E9682E712C19C0A5FECCCF8BE2FB
:1017400003DFC9CFD701C6010596A11DB11D8F8743
:10175000988BA98BBA8BBC01CD012AE030E040E028
:1017600050E00E946D3969017A019394C414D50444
:10177000E604F70438F711E1190D8BEA189F112DD3
:101780001124169526E02919289F812D1124782EE1
:1017900076948E7F870D722E781A4E0197E0890E0F
:1017A000911C2AE0A401C701B6010E94073AF40186
:1017B00001900020E9F731977F01E818F908DE2C45
:1017C000872D90E004968E159F051CF41F5FA3E003
:1017D0007A0E812F90E0845D9F4F0E945B3A982E95
:1017E0008A2D8071A4FE05C0802F8E19D01608F0B6
:1017F00080E00E2D0719080F101624F08EE2A4DEEB
:10180000872D8E19711001C008EFA12CC82ED12C84
:10181000EC0CFD1C002E000C110BEA2DF0E0EE1577
:10182000FF0564F0992011F0892D8EDEBB2011F0A8
:101830008B2D8ADE6296E0E10C94EE393696EC1937
:10184000FD0981E090E08C0F9D1FE80FF91F80815A
:101850007BDEA394A016110601F78EE275DEDDCFC4
:10186000CF92DF92EF92FF920F93CF93DF9300D04E
:1018700000D0CDB7DEB7022F6C01F12CE12C242F64
:10188000462FC701B60109DF0F900F900F900F9000
:10189000DF91CF910F91FF90EF90DF90CF9008955F
:1018A0000F93CF93DF9300D000D0CDB7DEB7062FD4
:1018B0009C0150E040E029833A834B835C8326E51A
:1018C0004DEF69817A818B819C81E7DE0F900F90CB
:1018D0000F900F90DF91CF910F9108950F93042FE8
:1018E00028E440E0DADE8AE72FDE8ED80F910895F3
:1018F000E82FF0E0EE0FFF1FE057FE4F8591949127
:1019000020910001420F20910501620F20E080CE5E
:101910000895CF93DF93C82FD62FE0913D01F0912A
:101920003E0148E16EE18685E3DFE0913D01F09103
:101930003E014D2F6C2F8485DBDFE0913D01F0915E
:101940003E0140E06EE18585D3DFDF91CF910895C0
:1019500099B193FB992790F949999260809111016F
:10196000843050F08EE080930D0190930E01109220
:10197000120181E08093110180911101E82FF0E0C4
:10198000E35FFE4F30813917C9F091110EC02091ED
:101990001201E3E0E80FE3703230C9F4F0E0E35FF6
:1019A000FE4F30812F5F3330D9F0E1E0E80FE37074
:1019B000E0931101F0E0E35FFE4F9083809112010C
:1019C00087FD03C08093130108958195FBCF3130CB
:1019D00061F7F0E0E35FFE4F3081333031F72150A3
:1019E00020931201E2CFB0E0A0E0E9EFFCE00C941C
:1019F000D939F82EE92E5398519805D91092120131
:101A0000E0911101F0E03196E370FF27E35FFE4FB4
:101A100080EF8083C5E6D9E19BDF4F9B24C0CF2DAB
:101A2000DE2DD12C15E500E0BB24B394D7FD15C005
:101A300082E3C82E8DDFEBD8CA94C110FBCF110F03
:101A40004F9B1F5F1F731F33A1F4011103C0CF2DE4
:101A5000DE2D04E00F5F083C80F0802FCDB7DEB7AD
:101A6000E9E00C94F539D3D8D150B1F6C15099F6CC
:101A7000D6CF111102C00111F0CFA8951C161D067A
:101A800024F42A9711F4CFEFDFEF8091130188231C
:101A900039F0D39480917701811102C0B09277011F
:101AA00084E18D1508F0C2CF809112018111D5CF4C
:101AB000D12CBCCFCF93EBDBC82F80913F01882383
:101AC00001F1813051F4C73041F464E187E0BADBC1
:101AD0008BE23ADD64E187E0B5DB80E49FE183DF00
:101AE000811104C0809113018111F7CFC73041F4F7
:101AF00080913F01813021F460E087E0A3DB2BDCA3
:101B0000CFDBCF9108951895189540911801A091B9
:101B10003D01B0913E01E1E9F1E030E020E0822FAB
:101B20002417B0F451911C969C911C97591719F0E9
:101B30005581951303C02F5F3F4FF1CF220F331F05
:101B4000F901E356FE4F20813181293E334008F0F0
:101B500084E1089510921A011092180110926F01F9
:101B600010924F011092190110923B0110927601D0
:101B7000EAE5F1E0108211821282EBE7F1E0108ACF
:101B800082E0818B109220011786168614821582BE
:101B90001682178281EF838B08958CDB5E9822D8A2
:101BA00090E080E020CF08951F93CF93DF93162F0E
:101BB00017B818B8E82FF0E0E55BFD4F949195B9A0
:101BC000262F281BE20FF11D27FDFA95E491E92B42
:101BD000E4B962D8EC01812F5FD8AC0120913001CB
:101BE0003091310136952795C9010397BE01625E98
:101BF0007F4F8617970778F4255E3F4FC217D307AC
:101C000050F4BA01625E7F4F8617970720F481E097
:101C10004217530708F080E014B8DF91CF911F916D
:101C20000895CF9361E080E0BFDFC82F62E080E0DD
:101C3000BBDFC80F62E081E0B7DF8C0FCF91089562
:101C4000A6E1B0E0E6E2FEE00C94D039B82E1092A6
:101C50001A01807FB9F4E5DF833081F430DB8AE557
:101C600092E0C8DC02DB8FE36FDC80ED97E0BBDE47
:101C70008B30B0F424DB85EF90E0BCDC6696E2E1CB
:101C80000C94EC3906E910E01ADB87EB91E0B2DC4A
:101C9000C8DF833009F065C01F5F143008F462C0EC
:101CA000E4DA0E94E42581EB90E0A4DC60E081E3CB
:101CB00093E00E94683A60E082E393E00E94683A11
:101CC00060E080E393E00E94683A60E082E00CD933
:101CD0006C019A83898361E082E006D97C019C8350
:101CE0008B8360E081E000D98C019E838D8323E0AB
:101CF00040E26EEFC601B4DD23E040E26EEFC701C3
:101D0000AFDD23E04DE16EEFC801AADD2AE5C21682
:101D1000D10424F084E190E09A838983698181E38E
:101D200093E00E94683A8AE5E816F10424F084E121
:101D300090E09C838B836B8182E393E00E94683AFE
:101D40000A35110524F084E190E09E838D836D8136
:101D500080E393E00E94683A82E080933F01AADE2C
:101D600007C010E088E20E941506015009F08CCFF0
:101D70001B2D1F70113009F051C0EE24E394F12C9B
:101D800078EB872E72ED972E77E4A72EB12CE2E048
:101D9000DE2EF8E0CF2EA0E23A2E1F860E2D5AE05E
:101DA000252EFFDAFADA84E5CFDBC7010E94F904B9
:101DB0000E940405013009F0D2C184EE90E01ADCE3
:101DC00064E080913401909135016ADD4EDA8FED47
:101DD00090E010DC8091790190917A010E94F904E1
:101DE0008EEB80932C0117B818B814B815B888EE8C
:101DF00093E0F9DD043011F08B3028F49F859F5F6C
:101E00009F87943071F688EE93E0EDDDAFEFEA1A2C
:101E1000FA0AB8E0EB16F10409F0BFCF08E701DFDA
:101E200081119DC24CDA8AEA90E0E4DB23E04DE1C7
:101E30006FEF809132019091330112DD16DA83EA5F
:101E400090E0D8DB23E04DE16FEF80913901909174
:101E50003A0106DD82E080933F012CDE10921A01E8
:101E60002EDA8FE990E0C6DB60E082E00E94C722B4
:101E700040908301509084016090850170908601AC
:101E80005C864B8661E082E00E94C72280908301DD
:101E900090908401A0908501B09086019E868D86E9
:101EA00060E081E00E94C722C0908301D09084014D
:101EB000DE82CD8262E080E00E94C72280918301B1
:101EC000909184019C838B8362E081E00E94C72211
:101ED00080918301909184019A87898761E080E0F5
:101EE0000E94C722E0908301F0908401FA82E98287
:101EF000C2010E940305C4010E940305C6010D2C06
:101F0000000CAA0BBB0B8F87988BA98BBA8B03E0B5
:101F100026E444EFBC01CD01C0DB113009F02AC238
:101F200092E0E90EF11CF886EF82DE0111967D0148
:101F30005E01BFE0AB0EB11CF701819191910A9750
:101F4000853B9105D0F4AE16BF06B9F740E5C42E27
:101F500043E0D42EF7016081F2E0EF0EF11C6E5EDB
:101F6000C6010E94683A2FEFC21AD20AEA14FB0493
:101F700089F77BD985EA91E03DDB82E080933F01E0
:101F800099DD0E94E835113029F0809138018230C6
:101F900009F0D0C094D980E01FDB8BE491E02ADB0C
:101FA00082E01ADB84E290E025DB90E4E92EF12C5C
:101FB0002AE0822E912CA12CB12C37EFD32ECADD32
:101FC00010921A0160E082E00E94C72210918D01F8
:101FD00020917B0130917C0140917D0150917E01E7
:101FE000012F073F0CF4D0C18D2D811B183F0CF041
:101FF00080E0180F10938D0120937B0130937C01BA
:1020000040937D0150937E01173F09F0C5C12056D2
:10201000310941095109203935454105510508F07B
:10202000BBC160918F0170919001CB018B569F4F86
:102030008B32914008F0B0C1F394B4E0BF1508F0C2
:10204000ACC187E593E00E94763A39D98DE190E002
:10205000D1DA80918F01909190010E94EE040E944C
:10206000BE0618B881E087B980E284B982E00E9498
:102070004C06853D9340D4F714B810922F0110926E
:102080002E0182E00E944C068C0180917401909197
:10209000750190932F0180932E0182E00E944C06DF
:1020A0006C01CC0CDD1C10922F0110922E0182E0ED
:1020B0000E944C064C01A0907401B0907501B09242
:1020C0002F01A0922E01D1D886E190E093DA89E524
:1020D00093E00E945B3AF82ED801A80DB91DAC1907
:1020E000BD0995010E94BA3996010D2C000C440BD4
:1020F000550B0E948F3913E01F0D120F612F89E5D8
:1021000093E00E94683A812F012E000C990B0E94E7
:10211000EE040E94BE0682E080933F01CBDC109269
:10212000380180E593E00E945B3A682F83E593E0F5
:102130000E94683A89E180932C0180E00E94E53892
:10214000BED885EF90E056DA90D880E492E052DA7B
:1021500010921A0182E080933F01ACDC8FCD0230F7
:10216000C9F52091300130913101A8E5BBE10E9411
:10217000AB396B8B7C8B8D8B9E8B24EC36E340E0F4
:1021800050E00E948F39290181E085B995E094B92A
:1021900080E00E9441069C01241935093A83298375
:1021A00081E184B980E00E9441069C01241935092F
:1021B0003C832B8384E085B984E184B981E00E946B
:1021C00041069C01241935093E832D8389EC90E05A
:1021D00011DA37C0033059F5D5B824B880E00E9431
:1021E000410620913001309131013695279538878D
:1021F0002F83821B930B9A838983A2E2A4B980E088
:102200000E9441062F813885821B930B9C838B8310
:10221000C5B8B8E2B4B981E00E9441062F81388583
:10222000821B930B9E838D838BEB90E0D1CF043088
:10223000D1F48DE492E0DED9F4DC882311F0E2E001
:10224000EF8713D889819A810E94EE040E940405C9
:102250008B819C810E94EE040E9404058D819E81E9
:102260000E94EE04C0CD0530B1F415B8D4B880E0BA
:102270000E9441069A838983C4B881E00E94410686
:102280009C838B8334B882E00E9441069E838D83B9
:102290008BED90E09DCF063051F5D4B8D5B880E0F5
:1022A0000E9441062091300130913101821B930B35
:1022B0009A838983C4B8C5B881E00E944106209101
:1022C000300130913101821B930B9C838B8334B896
:1022D00035B882E00E9441062091300130913101F1
:1022E000821B930B9E838D8387ED90E071CF073027
:1022F00009F0A7CF2091300130913101A8E5BBE171
:102300000E94AB396B8B7C8B8D8B9E8BA5019401CE
:102310000E946D392901D5B8F3E0F4B980E00E943C
:1023200041069C01241935093A832983C5B82CE05C
:1023300024B981E00E9441069C01241935093C839F
:102340002B8335B880E384B982E00E9441069C016A
:10235000241935093E832D8385EB90E039CF21D8B0
:102360008DE492E047D984E60E941506015009F0F9
:1023700056CD58CD80913801823009F4D1CDF88600
:10238000EF8210923801D1CDCA01B901A5019401A3
:102390000E946D390F5F25CEF12C0E943509809186
:1023A0007B0190917C01A0917D01B0917E0104E0C0
:1023B00026E440918D01BC01CD016FD90E94AB098B
:1023C00088E20E941506EA94E110F9CDB3CE80911F
:1023D000380181110DC080E593E00E945B3A61E015
:1023E000680F83E593E00E94683A81E080933801AA
:1023F0000895A5E0B0E0EFEFF1E10C94DA396D83D8
:10240000E82FF0E0E25BFD4FE491E8B9E7B915B8D9
:102410008D81E82FF0E0E55BFD4FE491E4B9EE0F2C
:10242000E98308E813E178018D810E9441068C015F
:10243000898184B90E151F05B0F301151105E1F06E
:102440000E9441098BE291E0D5D8D80120EA36E814
:1024500041E050E00E94C03928E937EB40E050E00D
:102460000E946D3969017A0122E041E467EFC601FB
:10247000F7D917B818B814B82596E8E00C94F639CF
:1024800000D000D00F92CDB7DEB780E48AB98BB907
:102490005F9A26E820937A001092C1000E94F4050A
:1024A00034B73870398384B7877F84BF0FB6F89408
:1024B000A895809160008861809360001092600010
:1024C0000FBE86E88093640088E380937E001092BC
:1024D000B00087E08093B10078940E9476099981DA
:1024E0009111ACC584E08093110119824F990AC003
:1024F0000E941406A981AF5FA983AC33B9F780E6C7
:102500009DE605C0B9818FE59DE6BF31C0F7909388
:102510000C0180930B0110922D010E94E42588E1AB
:102520009FE00FB6F894A895809360000FBE90933B
:102530006000E981EC3309F460C040E4C42E41E05E
:10254000D42E50E6E52E51E0F52E6CE0962E7DE07F
:10255000872EE0EF7E2EF3E36F2E8FEA0E9456095E
:1025600084EA0E9456090E945F0917B8F3DA0E94B4
:10257000E4250E942F0975D580913B01882371F0D5
:102580000E94350980E491E035D863E08091300104
:102590009091310185D988EC0E9415060E94350979
:1025A0000E94ED2180911A01893061F50E945F0936
:1025B00085E491E01FD80E94350963E080915401C1
:1025C000909155016DD90E94040563E080915601F8
:1025D0009091570165D90E94040563E080915801EC
:1025E000909159015DD98AEC0E94150681E128DBA2
:1025F00000910B0110910C017AC10E940C308111E5
:10260000FCCF9BCF83E593E00E945B3A898380E512
:1026100093E00E945B3AF981F81BF093380180E067
:102620000FDB0E94D1098BEC92E00E94FA0A42E093
:1026300061E080E086D542E060E081E082D541E063
:1026400062E080E07ED541E060E082E07AD540E063
:1026500062E081E076D540E061E082E072D5809171
:102660001A0181110EC00E94ED2160E082E00E94FB
:10267000C72261E082E00E94C72260E081E00E9400
:10268000C7220E945F09D0923E01C0923D01809115
:102690001A018630E9F485EC0E94620A60E188EF55
:1026A00038D968E080E00E94220987E992E00E9420
:1026B000FA0A68E081E00E94220989E591E00E941F
:1026C000FA0A62E08091440190914501E9D890CFE7
:1026D000873069F484EC0E94620A60E188EF19D9BE
:1026E00068E080E00E94220980EA92E0E0CF883032
:1026F000A9F480918B0190918C01890F9927991FE2
:10270000029741F40E9453288091380181113FC4FF
:1027100044DA23CF80E00E947B276ACF833009F020
:10272000F8C080911801813009F054C080E00E9407
:10273000C30560919101809197015BDE80E70E9463
:102740009B0540E060919101809197010E940D35B9
:1027500060937B0170937C0180937D0190937E0157
:1027600080E00E94CA0980917B0190917C01A09138
:102770007D01B0917E0189839A83AB83BC8302E0A3
:1027800026E442EFBC01CD010E944D0B8091760101
:10279000882309F42DCFB0E1B7B917B880E00E94C3
:1027A000CA0920917601222309F4D5C380915D01E5
:1027B000213009F065C30E945E05692F90915D018B
:1027C000913009F059C390911801911155C30E949D
:1027D00009289ACF823081F582E30E94A40A8DE015
:1027E00091E00E94FA0A9091910130919201931325
:1027F00008C080E00E94DF0581E00E94D60581E0EC
:102800009ECF2091970180919801281307C080E006
:102810000E94CF0581E00E94E605F1CF321306C089
:1028200081E0809306010E94B105B0CF981340C0AB
:1028300090E190930601F7CF8330D1F560920601C5
:102840008091970190919201891303C021E0209318
:1028500006014091910130919801431303C0A0E11A
:10286000A093060120919301821303C082E080931C
:10287000060180919901481303C040E2409306018C
:10288000321310C022E120930601981303C081E2A5
:102890008093060183E30E94A40A8DE091E00E94E8
:1028A000FA0AC1CF981799F380910601823290F30A
:1028B0008CEA92E00E94FA0A8DE892E00E94FA0AFD
:1028C0000E94350980911801805D0E94A40A8AE265
:1028D0000E94A40A87E291E00E94FA0A81E792E04E
:1028E0000E94FA0A86E00E94620A00E41FE1A0E169
:1028F000A7B94F9BFECFC80176D8823328F49091B8
:102900001301933008F434C30E940C308111FCCFC2
:1029100024CE843009F060C180916F01882309F4CE
:1029200068C080914F01882309F463C060914C0115
:1029300080914E010E94C72220907B0130907C0143
:1029400040907D0150907E01B0918D01B9836091DE
:102950006E0180916C010E94C7228091400190918C
:102960004101A0914201B091430140916001509119
:1029700061016091620170916301843FE1E09E0713
:10298000A105B10540F4443FF1E05F076105710521
:1029900010F020EF2983443F51406105710538F460
:1029A000843F9140A105B10510F070928D01809196
:1029B0008D01F9818F1310C080917B0190917C0172
:1029C000A0917D01B0917E01281639064A065B066A
:1029D00030F09092190105C029812817D4F7809210
:1029E000190180916F01882321F080914F0181119D
:1029F000D3C068E080E00E94220980EC0E94620A55
:102A0000809119018C3009F0D0C085E791E00E94D7
:102A1000FA0A80916F01882319F080E70E94A40AC6
:102A200074D88D83853098F4A0913D01B0913E011A
:102A3000E82FF0E0EF56FE4F1D969C91808162E0FA
:102A4000981301C060E086E991E00E94890A60E184
:102A500089EF0E94890C88E00E94B10984E891E026
:102A60000E94FA0AE0913D01F0913E01808191813E
:102A7000A281B38189839A83AB83BC8303E020E086
:102A80004EEFBC01CD010E944D0B89E00E94B109BF
:102A900089E40E94A40AE0913D01F0913E01868103
:102AA00097818031974208F493C085E60E94A40A7A
:102AB000E0913D01F0913E018681978180519742DE
:102AC000978386830E940805E0913D01F0913E01C5
:102AD00022E041E46AEF868197810E94300C88E011
:102AE0000E94B1098DE591E00E94FA0AE0913D0152
:102AF000F0913E0163E0848195810E94500C81E059
:102B000080933F01E0913D01F0913E0180859185E8
:102B1000892B91F087E00E94CA098FEE90E00E9415
:102B2000FA0AE0913D01F0913E0122E041E46AEFB2
:102B3000808591850E94300CE0913D01F0913E012D
:102B400082859385892B91F087E00E94CA0989EEDE
:102B500090E00E94FA0AE0913D01F0913E0122E0EE
:102B600041E46AEF828593850E94300CBD81B530C7
:102B700068F480E00E94CA098D810E94C30589E53E
:102B800091E00E94FA0A8D810E948D0543E462E47F
:102B900085E40E9431052CCD4F992BCF80911901EE
:102BA00091E089278093190124CFF0923E01E092B1
:102BB0003D0181ED91E00E94A10A8DE691E00E9425
:102BC000FA0A80914F01882309F42ACF8EE626CF96
:102BD00083E60E94A40A76CF853009F0E2CD68E052
:102BE00080E00E94220980911901E82FE071E983B9
:102BF00084FF68C080E50E94A40AF0923E01E09242
:102C00003D01F2E0F9830E94060580911901182F19
:102C10001F70143009F05AC08FE891E00E94FA0A40
:102C200083EC0E94620A29818AED91E0211164C03F
:102C30000E94850D853098F4A0913D01B0913E0130
:102C4000E82FF0E0EF56FE4F1D969C91808162E0E8
:102C5000981301C060E086E991E00E94890A60E172
:102C600089EF0E94890C88E00E94B10988E00E94E7
:102C7000B1098091190185FD6AC085E591E00E9446
:102C8000FA0AE0913D01F0913E0162E08285938570
:102C90000E94500CE0913D01F0913E0166858485D3
:102CA0000E94C72288E00E94B1090E94130B87E0AE
:102CB0000E94390B4FE367E48FE3143009F469CFC6
:102CC0001982CCC08EE40E94A40A9DCF85FF17C054
:102CD00084E40E94A40A39813F5F39831330F9F4F8
:102CE00089E891E00E94FA0A81EC0E94620A8981D7
:102CF000813049F487E292E00E94A10A99CF85E4ED
:102D00000E94A40AEBCF9981923031F0933009F000
:102D10008FCF83E092E0F0CF83E392E0EDCF84E9C0
:102D200091E00E94FA0A82EC0E94620AA98183EF74
:102D300091E0A13009F3B981B23031F0B33009F03C
:102D400077CF81EE91E0D8CF89EF91E0D5CFE091B8
:102D50003D01F0913E018F70843009F454C06685C6
:102D600084850E94C7220E94130B60E085E00E94C8
:102D7000220989E40E94A40A84E60E94A40A0E940F
:102D80000805E0913D01F0913E0122E041E46AEF47
:102D9000868197810E94300C8FE491E00E94FA0AAC
:102DA000E0913D01F0913E0162E0828593850E94B1
:102DB000500CE0913D01F0913E0180859185803C71
:102DC0009241F8F480E00E94CA0989E40E94A40AB2
:102DD00084E60E94A40A0E94080522E041E46BEF09
:102DE00090E080E00E94300C8FE491E00E94FA0AAB
:102DF000E0913D01F0913E0162E0808591850E9465
:102E0000500C80E055CF84819581892B09F4ADCF9A
:102E100080E090E00E94FA0AE0913D01F0913E01CD
:102E200022E041E46AEF848195810E94300C9DCFBD
:102E3000F981F11103C080E00E94B10980E00E9495
:102E4000CA0989810E94C30589E591E00E94FA0AB6
:102E500089810E948D0529812F5F29838091180126
:102E60003981381728F344E467E483E5133009F027
:102E700090CE43E467E48CCE40E00E94B726B8CB06
:102E800090915E01E4E09E9FD0011124A255BE4FB7
:102E900034E0839FF0011124E255FE4F2D903D90C8
:102EA0004D905C9040815181628173814215530540
:102EB0006405750508F04DC09983980F83E0891B60
:102EC0002230E1F080915F0194E0899FD0011124CC
:102ED000A255BE4F398124E0329FF0011124E25502
:102EE000FE4F0D911D912D913C9140815181628148
:102EF0007381401751076207730708F489830981BA
:102F0000069512E08981181BBB24B394882311F025
:102F100032E0B32E802F0E94EC0A88E091E00E94FC
:102F2000FA0A812F0E94EC0A88E091E00E94FA0AD6
:102F30008B2D0E94EC0A80E00E94B10981E099810A
:102F4000911180E00E94680582E0801B0E94680564
:102F50004FCB8983B2CF8CE792E00E94FA0A0E949D
:102F6000350987EB92E00E94FA0A8CEA92E0B8CC2D
:102F70008111F3CA9111BFCCC7CB80E09DE70E94BD
:102F8000F30C811152C08091120187FF19C028E013
:102F9000522E10E000E0D801AF5ABD4F5D01FD0197
:102FA00080E095E1392EB491B983B03211F0BE3F83
:102FB00009F4382E8F5F31968631A9F75520E9F252
:102FC000E52DE7704E2E11F40E945F0960E0842D1C
:102FD0000E942209A8955394F52DF7705F2E412C7D
:102FE00043100EC08981882301F1040D111DF801E1
:102FF000EF5AFD4FE491E03271F60F5F1F4FCBCFD8
:10300000F501F491F983FF2381F0FF3F39F40E9429
:10301000040543943FEFA31AB30AE2CF29812E3F60
:10302000C1F3822F0E94A40AF4CF80E09DE70E94A2
:10303000F30C8091120187FDAACF6ACB0E942F0961
:1030400085E692E00E94FA0A8BEC0E9415060E9427
:10305000CD0D90E080E00F900F900F900F900F90AB
:1030600008950F931F93CF93DF9385E00E944C0642
:1030700085E00E944806EC018C01000F111F000F33
:10308000111F0A561F4F10923601043883E01807AB
:1030900070F489E991E00E94FA0A0E94AB0981E08C
:1030A00080933601DF91CF911F910F91089588EAA7
:1030B00091E00E94FA0A62E0C8010E94500C0E944E
:1030C0000405CA3F86E0D807B0F4C333D64060F4A5
:1030D0008EEB92E00E94FA0A0E94AB098DEC0E94EE
:1030E00015060E94CD0DDECF85EC92E00E94FA0A13
:1030F0000E94AB09D7CF85EA91E0F8CFFC019C0193
:10310000261B370BCA0170E060E0A901460F511D74
:10311000452F5527620F240F351FAC01470F511D56
:10312000452F5527780FDA01AA0FBB1F8A0F9B1F67
:103130004B3E20F4E217F30740F7089590E080E05B
:103140000895A2E2B0E0E7EAF8E10C94D03989A34F
:10315000162F4987A895E62FF0E0E55BFD4FC49058
:10316000C88ACC0CCE8E33963490E42FF0E0E55B29
:10317000FD4F04913396B490E82FF0E0E55BFD4FEE
:103180002490D22CDD0CDA8E3396E490EAA205B9B5
:10319000F888F02AFE8AF4B8E7B8E8B8862F0E94CB
:1031A00048068D839E83C888C4B8812F0E94480634
:1031B0003C0114B80E94FD0515B8F4B8812F0E9497
:1031C00048066D817E810E94AA067C0137B818B836
:1031D000402E422845B844B889A10E9448060E9462
:1031E000B006582E892E15B80E94FD0525B889A174
:1031F0000E9448060E94B0066C0124B889A10E9472
:1032000048060E94B006982EA92EB601852D982D4D
:103210000E94AA069C018032914030F480E2E816B8
:1032200081E0F80608F4C9C5EC0CFD1CAD81BE8137
:103230002A0F3B1FE216F30620F4DE82CD82692CB2
:103240007A2C20914F0180916F01820F9927991F4D
:1032500002974CF0213009F0B0C590914C0180915B
:103260006C019813AAC5D02EDD0CC888CD28CB8E52
:103270005D2C52282D813E812437310508F4ADC1E3
:10328000C9010A96880F991F6816790608F0A5C12A
:10329000CAA0C7B8C8B8EB8CE4B8812F0E94450615
:1032A0007C0189850E944C06A82EC92ED5B8812F95
:1032B0000E9445069701295A3D4F18B837B854B8AF
:1032C00055B82817390708F0B8C089850E94450607
:1032D00088349F4008F470C085E080931A0182E230
:1032E00080931901F0924501E09244016A2D7C2DF2
:1032F000C7010E94B50690934B0180934A01970144
:10330000A0E1B7E20E94AB396D837E838F839887FB
:10331000209114013091150150E040E00E946D3978
:1033200030934701209346018E8D8D2984B915B8BD
:10333000CAA0C7B8C8B889850E944C06F82E092FC4
:10334000812F0E9445066F2D702F0E94B506809335
:10335000480190934901209119012F70243089F17F
:1033600018B8B328B7B824B845B889A10E94480650
:10337000082F99830E94B0067C01812F0E944C0681
:10338000BC01C0901B01D0901C01802F99810E942C
:10339000B5069601DC010E94AB39970150E040E090
:1033A0000E946D39309345012093440180914F0173
:1033B0008F5F80934F018CC385E080931A0184E274
:1033C0008FCF409146015091470160914A01709121
:1033D0004B0194DE9C01892B29F1D4B8DAA0D328C3
:1033E000D7B8812F0E944506082F998317B8282F38
:1033F0003981A0E1B7E20E94AB396D837E838F8370
:1034000098872091390130913A0150E040E00E94C4
:103410006D39A901602F798180914801909149010E
:103420006DDE9C0130934501209344018091190188
:103430008F70843009F4BACF93CF89A10E944506DA
:103440007C0189850E944C06A82EC92E25B889A129
:103450000E944506895A9D4F8E159F0508F0ADC400
:103460002AA128B927B989850E944506813D934044
:1034700008F06DC085E080931A0182E38093190102
:10348000B7018A2D9C2D0E94B50690936B01809305
:103490006A01C7010E94B0069C01A0E1B7E20E9448
:1034A000AB396D837E838F83988720911B01309188
:1034B0001C0150E040E00E946D3930936701209379
:1034C000660118B837B88A8D8D2984B985B989A164
:1034D0000E944C06F82E092F89850E9445066F2D03
:1034E000702F0E94B5068093680190936901209126
:1034F00019012F70243081F1CAA0CB28C8B8C7B8F1
:1035000015B844B889A10E944806082F9983812FD5
:103510000E944C067C01C0901401D0901501BC01A2
:10352000802F99810E94B5069601DC010E94AB397B
:10353000970150E040E00E946D393093650120937F
:10354000640180916F018F5F80936F0156C185E0A8
:1035500080931A0184E392CF4091660150916701F4
:1035600060916A0170916B01C9DD9C01892B51F159
:10357000D5B8D4B8DAA0D8B8ED2DE329E7B989A138
:103580000E9445060E94B006F82E092F17B8282F72
:10359000392FA0E1B7E20E94AB396D837E838F8320
:1035A0009887209132013091330150E040E00E9431
:1035B0006D39A9016F2D702F80916801909169017B
:1035C0009DDD9C0130936501209364018091190178
:1035D0008F70843009F4B5CF8FCF18B837B825B8BD
:1035E00054B889A10E9448068C8F9D8F0E94B00616
:1035F00089839A8389850E944C068A879B879301D9
:103600002C593F4F38A32F8FE980FA80B3012E1534
:103610003F0508F0F4C0C7010E94B5067C01209167
:103620001B0130911C0150E040E060E871EA83E04A
:103630009CE10E946D39D7010E94C0396C877D875B
:103640008E879F87EA84FB84970150E040E00E94C8
:103650006D3949015A0114B815B8FAA0F8B8F7B88D
:1036600081E00E941506CE88C4B8812F0E944806CA
:103670008F359D4008F46FC1CB8CC4B8812F0E9458
:1036800045067C0189850E944C068C879D8789A10F
:103690000E944C068C8B9D8B2C853D85213D3740AF
:1036A00008F4E1C084E080931A018DE08093190151
:1036B00067016E147F0410F4C618D7082090140117
:1036C00030901501512C412C60E871EA83E09CE1B7
:1036D000A20191010E946D39D6010E94C039CC84AB
:1036E000DD84960150E040E00E946D3980916F01C9
:1036F000882371F08091600190916101A091620135
:10370000B091630182179307A407B50708F096C02C
:1037100020936001309361014093620150936301F3
:103720009701A0E1B7E20E94AB39A20191010E948A
:103730006D3930936701209366016C857D858C8996
:103740009D890E94B506909365018093640181E094
:10375000409160015091610160916201709163013B
:10376000481559056A057B0508F06AC0809260011A
:1037700090926101A0926201B09263016A857B859B
:103780008C8D9D8D0E94B506909365018093640198
:1037900029813A81A0E1B7E20E94AB3920911B0157
:1037A00030911C0150E040E00E946D39205F384D9F
:1037B0003093670120936601C0901401D0901501E9
:1037C000F12CE12C9301A0E1B7E20E94AB39A701F3
:1037D00096010E946D3930936901209368012D8113
:1037E0003E81A0E1B7E20E94AB39A70196010E9499
:1037F0006D3930936B0120936A0181E023C0898188
:103800009A810E94B5067C0144B889A10E944806AD
:103810008C8F9D8F0E94B00689839A8389850E9430
:103820004C068A879B876A857B85C7010E94B506FF
:103830009C01A4E6B0E00E94AB3900CF80E088CFC5
:103840008111BACF90916F019F5F90936F01882390
:1038500009F46DC3D984D0926C0110936D01E9A075
:10386000E0926E0164C321E66216710408F073C031
:1038700031EDE31637E0F30608F46DC085E0809380
:103880001A0182E180931901C70186509F4FCC88AD
:10389000DD888C159D0508F043C083E180931901F4
:1038A000232D2770322E8985806480937C003BE035
:1038B0003983CC24C394D12CEE24EA94B3E0FB2EBC
:1038C000A89561E0802F72D54B8D44B986B18321D4
:1038D000E9F3888984B980917A00806480937A00C2
:1038E00080917A0086FDFCCF8091780090917900DC
:1038F000D701A81BB90BCA0EDB1EB981B150B98321
:10390000B111DECFC601880F991F880F991F69E09A
:1039100070E00E94463970936B0160936A0111CE8A
:10392000C0901401D0901501B7018C899D890E9427
:10393000B5069601DC010E94AB396D837E838F83CF
:103940009887970150E040E00E946D3930936501FF
:1039500020936401A5CFCB8CC4B8D5B8812F0E9429
:1039600048064C0189850E944C068A879C870E94E4
:10397000B0067C01CF8CD8A0C814D90408F0AAC026
:10398000B301C4010E94B5066C012091140130916D
:10399000150150E040E060E871EA83E09CE10E949C
:1039A0006D39D6010E94C03969837A838B839C83E9
:1039B000970150E040E00E946D392E8B3F8B488F7D
:1039C000598F37B818B844B845B889A10E9448063D
:1039D0005C0189850E944C06D82EC92E812F0E9439
:1039E0004C067C0120E3A21621E1B20608F0E3C1F7
:1039F00025B889A10E94480689839A8324B889A1A1
:103A00000E9448068C8B9D8B15B881E00E9415069C
:103A100025B889A10E9448069C018C899D89803423
:103A2000964008F075C02133314108F471C0C501DA
:103A30008A569F4F29813A812817390708F068C0B4
:103A400086E080931A0180914F018F5F80934F0130
:103A5000B7018D2D9C2D0E94B50690934501809352
:103A60004401B701C5010E94B50690934B018093B4
:103A70004A0114B815B838B881E00E94150624B878
:103A800089A10E944806853F910510F544B88985B3
:103A90000E944806813D9340D8F089A10E944C06BF
:103AA0008D3D9240A8F024B889A10E9448068D3D22
:103AB000924070F025B881E00E94150615B889A1E2
:103AC0000E944806853F910518F487E080931A010B
:103AD00081E0F4C0DE88D4B805B9812F0E94480681
:103AE0004C0189850E944C068A879C870E94B006FB
:103AF0007C01C4016814790410F486199709B70190
:103B00000E94B5069C01A4E6B0E00E94AB394CCF00
:103B100037B804B905B981E00E94150654B855B804
:103B200089A10E9448066C010E94B0067C0189852B
:103B30000E944C068C8B492E0E94B00689839A8382
:103B4000812F0E944C065C0129813A812E3F394029
:103B500008F4C5C084E080931A018CE080931901B9
:103B6000B301C7010E94B5066C0120911B01309181
:103B70001C0150E040E060E871EA83E09CE10E94B3
:103B80006D39D6010E94C039C980DA80960150E0B3
:103B900040E00E946D3980914F01882371F080913F
:103BA000400190914101A0914201B09143018217DF
:103BB0009307A407B50708F07DC020934001309318
:103BC00041014093420150934301B5018C89942DEA
:103BD0000E94B50690934501809344019701A0E1AE
:103BE000B7E20E94AB3920911B0130911C0150E0DB
:103BF00040E00E946D39309347012093460181E0F7
:103C00004091400150914101609142017091430106
:103C1000CE88DF88E88CF98C4C155D056E057F0534
:103C200008F04AC0C0924001D0924101E0924201A6
:103C3000F0924301B4018A859C850E94B506909359
:103C40004501809344019401A0E1B7E20E94AB39A1
:103C5000209114013091150150E040E00E946D392F
:103C6000205F384D30934701209346019301A0E136
:103C7000B7E20E94AB39209114013091150150E058
:103C800040E00E946D3930934901209348012D8115
:103C90003E81A0E1B7E20E94AB3920911B01309137
:103CA0001C0150E040E00E946D3930934B0120939D
:103CB0004A010ECF80E0A4CF8111D8CF90914F015F
:103CC0009F5F90934F01882309F431C1F984F092EA
:103CD0004C01C9A0C0924D0110934E0128C121E6AC
:103CE0006216710408F067C039E4E3163DE0F3069C
:103CF00008F461C085E080931A0182E08093190185
:103D0000C50186509F4F8C159D05D8F583E08093A3
:103D100019014AA14770D42E8985806480937C0064
:103D20008BE08983EE24E394F12CA89560E0802F4A
:103D30003DD354B855B886B18D21E9F724B88091A8
:103D40007A00806480937A0080917A0086FDFCCFAF
:103D50008091780090917900E80EF91E9981915038
:103D600099839111E2CFC701880F991F880F991F7E
:103D700069E070E00E94463970934B0160934A01FC
:103D800015CB60901B0170901C01B501C6010E940B
:103D9000B5069301DC010E94AB396D837E838F836E
:103DA0009887970150E040E00E946D3930934501BB
:103DB00020934401AECF17B818B814B815B817B887
:103DC000A7EC6A16A1E07A0608F4D4C018B8CA8C29
:103DD000C4B868ECF62EEAA0E328E7B881E00E94B8
:103DE000150637B889A10E944C06429718F0FA943C
:103DF000F110F3CFDA8CD4B8D5B861E0802FD6D2E9
:103E000089A10E9448064C01EE8CE4B815B8FAA0CE
:103E1000F7B8F8B860E0802FC9D2812F0E94480619
:103E20000E94B0067C01C888C4B8812F0E944C064D
:103E30006C0189A10E944806B6010E94B5066C017A
:103E4000812F0E944C065C0189A10E944806B501A1
:103E50000E94B50696012C5E3F4F2817390708F4DB
:103E600066C018B837B824B825B861E0802F9ED254
:103E7000812F0E944C065C0189A10E944806B50171
:103E80000E94B5065C01C816D90608F05BC0DA8C42
:103E9000D4B8D5B889A10E9448069C017401E8EC09
:103EA000F0E048E4E41646E0F40630F4F70153E0AD
:103EB000F695E7955A95E1F788EEA81683E0B806DF
:103EC00008F051C0C50164E670E00E944639C501A2
:103ED000875991098938914108F04CC02A153B0552
:103EE00008F048C0EE0DFF1DEA15FB0508F042C0C2
:103EF0006E157F0508F03EC080911A01833018F4DA
:103F000083E080931A0120911801822F90E0FC0138
:103F1000EF56FE4FC9A0C0821683880F991FFC017F
:103F2000E356FE4FB182A0822F5F2093180117B88D
:103F300018B814B815B88EE20E94A40AA296E2E15D
:103F40000C94EC392E8D24B915B83AA137B938B98B
:103F500060E0802F2BD2812F0E9448060E94B0067D
:103F60009C0156019CCFB50144E0769567954A9532
:103F7000E1F7ADCF612F89A101D0D9CFA6E0B0E0A4
:103F8000E4ECFFE10C94D2398D836E83A8952E81E9
:103F9000822F90E0FC01E55BFD4F54903396249115
:103FA0003D81432F50E0FA01E55BFD4FD4903396FD
:103FB000B49060916F0130914F01630F7727771FA5
:103FC000672B09F065C0A89560911E0170911F01D3
:103FD000660F771F660F771F709331016093300172
:103FE0006091740170917501660F771F660F771FDE
:103FF00070932F0160932E013EEB30932C01309192
:104000001801E1E9F1E0DF01480F591F9A2F9E1BCB
:10401000931708F118B827B9D4B8D5B818E1C12E4C
:10402000F12CE12C8E810E944806782E692E8701A2
:104030008D810E944C067C01801B910B97FF03C071
:1040400091958195910903970CF481C1A895CA9423
:10405000C110E8CF0AC08D9115966C911597680F25
:104060007727771F6417750789F680911E01909155
:104070001F019093310180933001809174019091E0
:10408000750190932F0180932E0189E180932C017B
:104090002696E0E10C94EE3985E8C81681E0D80652
:1040A00020F7043AA2E01A0708F0BBC0B8E9AB1643
:1040B000B104D8F2C6010E94B006AC019601A8E98D
:1040C000B7EB0E94AB399A0150E040E00E946D3995
:1040D00029013A01C5010E94B0069C01A8E9B7EB8D
:1040E0000E94AB39950150E040E00E946D3988E7AD
:1040F000C8168FE0D80608F078C0A2E0440C551C22
:10410000661C771CAA95D1F7D301C201820F931FB9
:10411000A41FB51FBC01CD0125E030E040E050E018
:104120000E946D39A4E6B0E00E94C03969837A83A9
:104130008B839C836B017C019CEAC90E9DE0D91E98
:10414000E11CF11C10911A01143008F08ECF9D81F2
:104150009150AE81A90FAD832A2F30E0F901E65AC4
:10416000FE4F8081220F331F220F331F22553E4FF7
:10417000D901882309F4D0C08D909D90AD90BC905A
:10418000A7019601281939094A095B0957FF07C099
:1041900050954095309521953F4F4F4F5F4FAAE086
:1041A000B0E00E94C039B4E68B0E911CA11CB11C7A
:1041B000C80CD91CEA1CFB1C6C157D058E059F05DF
:1041C00008F053CF133019F081E080931A0182E098
:1041D000808380917601E82FF0E0E35AFE4F2D8135
:1041E00020838F5F8093760140CF98E7A9169FE0E8
:1041F000B90670F4F2E0220F331F441F551FFA95E1
:10420000D1F7DA01C901840D951DA61DB71D82CF16
:10421000240D351D461D571D5695479537952795F5
:1042200081CFC0901B01D0901C01672D762DE61622
:10423000F70608F4B701C7010E94B5069601DC0134
:104240000E94AB3969837A838B839C83C7010E9468
:10425000B0069C0150E040E069817A818B819C81AD
:104260000E946D3929013A01A0901401B090150106
:10427000892D982D8017910708F4C801B8010E9474
:10428000B5069501DC010E94AB3969837A838B8383
:104290009C83980150E040E00E946D39A8E7EA163F
:1042A000AFE0FA06E0F472E0440C551C661C771C83
:1042B0007A95D1F7D301C201820F931FA41FB51FB6
:1042C00089839A83AB83BC83BC01CD0125E030E0B8
:1042D00040E050E00E946D3969017A0133CF083720
:1042E0009FE0190770F462E0220F331F441F551F2F
:1042F0006A95D1F7DA01C901840D951DA61DB71D78
:10430000DFCF73016201C20ED31EE41EF51EF694C8
:10431000E794D794C79416CFCD92DD92ED92FC929C
:10432000139781E08083A1CE550C54B88E810E94F2
:1043300048065C01B0ECEB16B4E4FB0608F4ACCE26
:1043400090EBC9169DE4D90608F08FCEAACEDD0CFD
:1043500015B8D4B88D810E9448068135910508F0C2
:1043600084CED5B88D810E9448066C01B7B8B8B824
:1043700015B854B8B8E14B2E10E000E08D810E94D2
:104380004806982E892E58018E810E944C068C0179
:104390008A199B0997FF03C091958195910903970D
:1043A0001CF2A8954A944110E9CF5FCECF93C82F55
:1043B000C09595B160FF0FC0982B95B994B1892B2A
:1043C00084B90E94140684B18C2384B985B18C23EE
:1043D00085B9CF9108959C23F0CFB0E0A0E0E3EF42
:1043E000F1E20C94D9398AE0D82E9FE3B92E29E066
:1043F000C22E17B818B815B8B4B880E00E944806A5
:104400008C0181E00E944C06EC0182E00E944C0687
:104410009C0180911A01893099F417B814B810934F
:10442000550100935401D0935701C0935601309326
:10443000590120935801CDB7DEB7E9E00C94F53966
:104440000430110550F4C430D10508F04CC02430BC
:10445000310518F381E0826008C081E0083E134016
:1044600008F080E0C83ED340B0F3283E334008F463
:10447000846087B9D0E0C0E0A89580E00E94410642
:104480007C0181E00E944C068C0182E00E944C0677
:104490009C0184E1E81685E0F80608F4389A0431B6
:1044A00095E0190708F4399A243185E0380708F4B3
:1044B0003A9A96E0E916F10430F40630110518F442
:1044C0002630310538F02196C43F81E0D807A1F6A7
:1044D000C0921A0110E000E00C171D0731F4DA94C5
:1044E000D11087CFA8CF81E0BDCF0E9403060F5F18
:1044F0001F4FF2CFCF92DF92EF92FF92CF93DF93D5
:1045000000D000D0CDB7DEB720917B0130917C0187
:1045100040917D0150917E0180918D0189838AE0D7
:10452000C82ED12CE12CF12C8981982F9F5F998383
:10453000213A96E8390791E04907510508F580933B
:104540008D01A0913001B09131010E94C03928E85D
:1045500033E140E050E00E946D3920937B013093BD
:104560007C0140937D0150937E010F900F900F903E
:104570000F90DF91CF91FF90EF90DF90CF90089553
:10458000CA01B901A70196010E946D39CDCFA6E0FD
:10459000B0E0EDECF2E20C94D8398D83B62E880FA2
:1045A0002D81820F9FEF960F890F80935101E22F8B
:1045B000F0E0E55BFD4F44914E83862F90E0FC01D7
:1045C000E55BFD4F1491FC01E25BFD4FA4908091EF
:1045D0001A019091180121E931E0D9018130C1F42B
:1045E0002696EAE00C94F43916968C9116978B1166
:1045F0000EC08C914D8184130AC0FD01EE0FFF1F88
:10460000E159F140448555854C3D554048F311969C
:104610008A2F821B891740F310928801109287011C
:1046200081EF80938D0110927B0110927C0110929A
:104630007D0110927E01D1DE18B8A7B814B915B962
:104640008D810E944C068C018B2D0E944C0614B863
:1046500010925301109252016C01C01AD10A80913C
:10466000520190915301843F914028F017B818B837
:1046700014B815B8B5CF9E8195B994B90E94FD05BF
:1046800014B815B80E940406A8958D810E944C06A6
:104690007C01EC0CFD1C80915201909153018E37EE
:1046A000910520F0ABE4EA16F10404F3BDE2EB1649
:1046B000B1E0FB060CF038C2809152019091530199
:1046C00001969093530180935201C9CFC70145E1F0
:1046D000E41645E0F4060CF443C17FDE15B887E02C
:1046E00087B918B8FE80FF0CF4B880E480937B0093
:1046F00084E580BF8D81806480937C0086E1809317
:104700007A000E94070610925301109252011092F3
:104710008000109285001092840087E286BB81E2BF
:1047200080936F0081E080937801F5B890911A0131
:10473000953009F0D9C18093810081E090E00D802F
:1047400002C0880F991F0A94E2F78095877087B995
:10475000F89483B7817F83BF80917801882389F0A3
:1047600083B7816083BF7894889583B78E7F83BF3A
:10477000F894A8958091520190915301803496400D
:1047800059F7789410928100E0908600F0908700AD
:1047900010926F0086E980937A0014B815B88D8165
:1047A0000E944C062091340130913501821B930BFD
:1047B0000C969093900180938F018091520190917B
:1047C00053018032934008F051CF80915201909173
:1047D00053019093860180938501F0928401E092C9
:1047E000830184EF80938D01809152019091530158
:1047F00082349105D8F08091830190918401A09139
:104800008501B0918601BC01CD0124E630E040E095
:1048100050E00E946D3920938301309384014093CE
:1048200085015093860186EF80938D01A0917901D7
:10483000B0917A01209183013091840140918501EA
:10484000509186010E94C03920E233E040E050E000
:104850000E946D3920938301309384014093850138
:104860005093860120937B0130937C0140937D011E
:1048700050937E013FDE80918D01843F09F056C048
:10488000C0907B01D0907C01E0907D01F0907E0192
:1048900090EAC9169FE0D906E104F104C0F4A7012B
:1048A00096012C543F4F4F4F5F4F60EA7FE080E00E
:1048B00090E00E946D39C20ED31EE41EF51EC09218
:1048C0007B01D0927C01E0927D01F0927E01C0904C
:1048D0007B01D0907C01E0907D01F0907E01C114BD
:1048E000D104A1E0EA06F10408F002C1D092BF01B0
:1048F000C092BE018091510190E0805B9C4F0E946C
:104900005B3A90E0B0E0A0E08C159D05AE05BF05D8
:1049100008F0F5C0C81AD90AEA0AFB0AC0927B015E
:10492000D0927C01E0927D01F0927E014E8144B9EB
:1049300080917B0190917C01A0917D01B0917E01DD
:104940004997A105B10508F086C090CE0E94FE05EA
:104950008D810E944C068C0D9D1DA8950F5F1F4FE9
:1049600020915201309153012017310778F76701E8
:10497000C81AD90A1C141D040CF0B3C089ECC8165F
:10498000D1040CF073CE28EE33E0D6010E94BA3980
:1049900069837A838B839C8397010F2C000C440BD3
:1049A000550B0E946D3989018091520190915301FC
:1049B0000196B0E0A0E08093830190938401A093DE
:1049C0008501B0938601C7018C0D9D1D0E941107C2
:1049D000209183013091840140918501509186019D
:1049E000DC010E94C03960937B0170937C0180934D
:1049F0007D0190937E016093830170938401809385
:104A000085019093860187EF80938D0173DDC090BF
:104A10007B01D0907C01E0907D01F0907E0183E3EA
:104A200093E00E945B3AA8EEB3E0A81BB10987FDB2
:104A3000B395A70196010E94CA3924E630E040E010
:104A400050E00E946D3920937B0130937C014093AC
:104A50007D0150937E0180911801882329F0809177
:104A60001A01853009F002CE88E080931A01809106
:104A70008D0190918E019817C4F08913F7CDC090E5
:104A80007B01D0907C01E0907D01F0907E0140910F
:104A90007F015091800160918101709182014C15DC
:104AA0005D056E057F0508F0E1CD40917B015091D9
:104AB0007C0160917D0170917E0140937F01509354
:104AC0008001609381017093820180938E01109325
:104AD0008A0100938901B0928B018D8180938C01B2
:104AE000C5CD10E000E060CF80938100A7B830CE44
:104AF00081E090E09093BF018093BE01FBCE24E162
:104B0000C20ED11CE11CF11CC816D906EA06FB0630
:104B100010F40E94E71110927B0110927C01109218
:104B20007D0110927E0102CF00915201109153013C
:104B30000115110509F4CACDC70110E000E010CF3E
:104B40001F921FB61F9211248F939F93B59904C093
:104B500080917801811109C0B59B10C080918600B9
:104B6000909187008A3F910548F48091520190917D
:104B70005301019690935301809352019F918F911D
:104B80001F901FBE1F9018951F921FB61F921124D1
:104B90008F939F9310927801B09B10C080918600F4
:104BA000909187008A3F910548F48091520190913D
:104BB0005301019690935301809352019F918F91DD
:104BC0001F901FBE1F901895A6E0B0E0EAEEF5E238
:104BD0000C94D63988E893E190931F0180931E01CD
:104BE00090933101809330018EEB80932C0118B8A3
:104BF00080E187B90E940C0617B884E00E9448063D
:104C0000AC018B5C9840833F9140A0F481E080939D
:104C10003B012091300130913101AFEBB9E00E94AE
:104C2000AB399A0150E040E00E946D3930931F018A
:104C300020931E0180911E0190911F0190933101DC
:104C4000809330018EE00E944C068EE00E94480660
:104C500090933501809334010E94BE06BEDB18B8E4
:104C600031E037B935B934B980E00E9448068C018B
:104C700082E0C82EC7B884E085B984B981E00E947B
:104C80004806080F191F24E027B990E1D92ED5B89E
:104C9000D4B882E00E944806080F191F15B831E009
:104CA00038B937B934B980E00E9448060E94B0068E
:104CB0007C01C8B8C7B884E084B981E00E94480686
:104CC0000E94B006E80EF91E24E028B927B9D4B82E
:104CD00082E00E9448060E94B0069701280F391F03
:104CE0003E832D8317B818B814B880913001909185
:104CF00031016C01CC0CDD1CC80ED91EC901800F1E
:104D0000911FC81AD90AF12CE12C9801A0E9BAE147
:104D10000E94AB39A70196010E946D3949015A01E1
:104D200030933A01209339012D813E81A0E9BAE107
:104D30000E94AB39A70196010E946D39309333016F
:104D4000209332012057354E30931C0120931B01D4
:104D500030E7831A35EE930A909215018092140180
:104D600089E180932C012696ECE00C94F239A5E0C1
:104D7000B0E0EDEBF6E20C94DA398D836983142F01
:104D80000E94EC0A88E091E00E94FA0A09D2698147
:104D90008D810E945C37C090C201D090C301E09029
:104DA000C401F090C5018091200187FD05C0C114A8
:104DB000D104E104F10421F084E091E00E94FA0AB8
:104DC00089810E94EC0AC114D104E104F10431F09C
:104DD0000E94040580915D010E946805112309F479
:104DE0005FC080913C01823108F05AC08650990B17
:104DF000865A9C4F0E94FA0A80E00E94CA09C11498
:104E0000D104E104F10409F44EC08091C2019091F3
:104E1000C301A091C401B091C50103E028E447EFAC
:104E2000BC01CD010E944D0B87E191E00E94FA0A7E
:104E30008AE693E00E94633A23E046E464EF0E942E
:104E4000300C8091BA019091BB01A091BC01B0914E
:104E5000BD01892B8A2B8B2B09F442C080E00E9474
:104E6000CA098091BA019091BB01A091BC01B09197
:104E7000BD0104E028E440E0BC01CD010E944D0BDF
:104E800082E191E00E94FA0A23E040E26FEF809114
:104E9000C0019091C1010E94300C0E94AB0927C053
:104EA0000E94AB09A9CF80915D010E9468058091A5
:104EB00020018E3F34F68FE291E00E94FA0A809141
:104EC000A9019091AA01A091AB01B091AC0103E0BE
:104ED00028E440912001BC01CD010E944D0BB1CFCF
:104EE00080E00E94B10980913F018823B1F22596AC
:104EF000E8E00C94F639A6E0B0E0E1E8F7E20C94C3
:104F0000DC39182F0E942F0980918B010E94EC0A36
:104F10008BE491E00E94FA0A8ED360918B0180911C
:104F20008C010E9474078D839E838D819E81909356
:104F3000880180938701E0908901F0908A018A3F7F
:104F40009F4F20F489E091E00E94FA0A80918C0141
:104F50000E94EC0A112309F448C090913C0182E1BF
:104F6000891B0E94190989E690E00E94FA0A0E94B2
:104F7000350980917F0190918001A0918101B091CC
:104F8000820104E026E440918E01BC01CD010E9423
:104F90004D0BAD81BE81AA3FBF4F68F48AE391E01B
:104FA0000E94FA0A22E04DE16EEF80918701909114
:104FB00088010E94300C0E94AB090E943B09E11459
:104FC000F10469F083E391E00E94FA0A22E045E2ED
:104FD0006FEF8091890190918A010E94300C0E94AC
:104FE000AB092696E6E00C94F8390E94AB09BFCFD6
:104FF0008F7021F40E9441090C94311808958F306C
:1050000021F490913601913011F08F5F089580E086
:105010000895CF9384E790E00E948E306AE080E0AC
:105020000E9422098EE593E00E94FA0AC0E00E94E5
:10503000AA0D60E082E00E94BE1F62E080E00E9454
:10504000BE1F0E942F09809176018823C9F041E09C
:1050500062E080E08CDE8C2FCBDF88EE93E00E9454
:10506000F30C811109C080911301843028F48C2F36
:10507000C6DFC82F8A3FD8F20E945F09CF910895FA
:1050800084E790E00E94FA0A8EE593E00E94FA0A13
:105090000E9435098FE30E94A40A80E00E94B109B2
:1050A0000E94AB09D8CF0F931F93CF93DF93C0E03B
:1050B000D8E012EF02E10E94AA0D60E082E067DA18
:1050C000D0931A0180918D01843FE1F480917B019E
:1050D00090917C01A0917D01B0917E018436910573
:1050E000A105B10578F440E060E082E00E940D3552
:1050F00060937B0170937C0180937D0190937E018E
:1051000010938D0180918D01823F6CF180938E010F
:1051100080917B0190917C01A0917D01B0917E01F5
:1051200080937F0190938001A0938101B0938201CD
:1051300081E0E1DE8C2F5CDF88EE93E00E94F30CCF
:1051400081110AC080911301843030F48C2F57DF15
:10515000C82F8A3F08F4AFCF0E945F09DF91CF913B
:105160001F910F9108950E942F098DE690E00E94F3
:10517000FA0A80913C01902F981B892F0E941909EF
:1051800089E690E00E94FA0A0E9435098FE30E94A6
:10519000A40A0E94AB090E943B090E94AB09CACF36
:1051A000AEE1B0E0E6EDF8E20C94D03982E0809315
:1051B000200180911A01813009F0E7C180917601C8
:1051C000813009F0E2C120905D0124E0229EF001CF
:1051D0001124E255FE4F408051806280738039E097
:1051E000431632E553066104710408F0CEC100E0B5
:1051F000822D023008F0CDC10E945E05182F792E55
:10520000E92FF0E0E25BFD4F349090E0FC01E55BBC
:10521000FD4FE49115B818B8402F4170498B50EFFD
:105220004516510408F0BBC14111B9C1A090140149
:10523000B0901501A0E9AA1AAAE1BA0A21E030E06B
:1052400002C0220F331F8A95E2F7C901832987B96B
:1052500084E1682E812F0E9445064C01872D0E9413
:105260004C0644E08416910410F4049718F06A94F4
:105270006110F0CF50E450937B0084E580BF812F14
:10528000806480937C0096E190937A00F12CE12C6D
:10529000109280001092850010928400A7E2A6BBB5
:1052A0000E940706202F30E03E8F2D8F3989311163
:1052B0007DC181E88093810038B886B385FF7FC1C6
:1052C00018B81092810050E256BB209186003091B0
:1052D00087006901409184005091850024173507AB
:1052E00008F47BC186E980937A00B4E13B2E812FDC
:1052F0000E9445064C01872D0E944C0644E084160E
:10530000910410F4049718F03A943110F0CFE09122
:105310003901F0913A01E40DF51DEA0DFB1D2091D4
:1053200016013091170150E9A5165AE1B50608F0AB
:105330005CC169E181EEC816D104E104F10430F4E6
:10534000C60165E070E00E94463964512852310977
:10535000261B310967FD339566E0862F90E0B0E0AB
:10536000A0E08C159D05AE05BF0508F047C1C81A21
:10537000D90AEA0AFB0A9989992329F0A2E2CA0EFE
:10538000D11CE11CF11CB0E5EB16F10418F0C12CA6
:10539000D12C76014BE0C416D104E104F10428F0CD
:1053A00051E0C51AD108E108F1083F01912C812C88
:1053B000A8EEB3E00E94AB396D8B7E8B8F8B988FFC
:1053C000A0913001B091310195010E94AB39A40147
:1053D0009F010E946D39442755276D897E898F89E9
:1053E000988D0E946D39C9010E945007FC01A401EB
:1053F0009301C701B6010E942B396D8B7E8B8F8B79
:10540000988FCF01B0E0A0E073E0880F991FAA1F2A
:10541000BB1F7A95D1F79C01AD012B5F3F4F4F4FDA
:105420005F4F298F3A8F4B8F5C8FCA01B9012AE0F9
:1054300030E040E050E00E946D396D897E898F89AF
:10544000988D0E946D39ED8DFE8DEE0FFF1FEE0FD2
:10545000FF1F81E090E08C0F9D1FE80FF91F208354
:105460003183428353839989911118C0ACE0CA16E5
:10547000D104E104F10490F00F5FED8DFE8D3196C3
:10548000EE0FFF1FEE0FFF1F81E090E08C0F9D1FBE
:10549000E80FF91F2083318342835383A8950F5F60
:1054A000043008F4A5CE18B884E00E94150691E0F7
:1054B0000D811E812F81388549815A816B817C81C4
:1054C000401751076207730708F090E00D851E85AD
:1054D0002F85388949855A856B857C8583E04017FF
:1054E00051076207730708F082E024E0829FD00131
:1054F000112441E050E04C0F5D1FA40FB51FE92FB0
:10550000F0E0EE0FFF1FEE0FFF1FE40FF51F0D91F0
:105510001D912D913C9140815181628173810417CD
:1055200015072607370708F0892F54E0859FF001FB
:105530001124A1E0B0E0AC0FBD1FEA0FFB1F4081BA
:105540005181628173814093A9015093AA016093B4
:10555000AB017093AC0180FD55C0B0EF4B16510408
:1055600008F050C08BEF809320018091A9019091A9
:10557000AA01A091AB01B091AC01892B8A2B8B2B96
:1055800011F41092200117B814B86E96E2E10C9451
:10559000EC390E945E059827892798272FCEE4B919
:1055A00037B8A0901401B090150152CE38B80E94BF
:1055B000100640E246BB81E8809381007ECE80FFEA
:1055C0007CCE91E096BBA89597012F5F3F4F790164
:1055D0002035310509F071CE73CE80FF83CEA1E076
:1055E000A6BBBFEFEB1AFB0A7DCECF0160EB76E3E3
:1055F0000E944639695F285D3F4FAFCEC12CD12C48
:105600007601B9CE8CEF80932001DB01CA010596AB
:10561000A11DB11DBC01CD012AE030E040E050E009
:105620000E946D392093A9013093AA014093AB01E8
:105630005093AC019ACFA7E0B0E0E1E2FBE20C941A
:10564000D2390091890110918A010115110509F0E3
:10565000ACC0E0918B01F0E0E25BFD4F2491298327
:10566000E0918C01F0E0E55BFD4F34913F830E94B7
:10567000ED2118B815B8498147B95F8154B98091B7
:105680008C010E944C067C0160918E01862F845F04
:10569000843008F08AC080917F0190918001A091B0
:1056A0008101B0918201615F6D832AE0422E512C0D
:1056B000612C712C9C01AD012B5F3F4F4F4F5F4F11
:1056C00029833A834B835C83CA01B901A301920108
:1056D0000E946D3949015A01DA01C9013D813F5FDC
:1056E0003D83373039F729813A814B815C812A35F6
:1056F000334C4105510508F058C0059708F455C0D2
:105700008F8185B984B91A82198249815A814815D5
:10571000590508F44EC014B815B8A89585E08093D3
:105720002C0180918C010E944C0689839A83898187
:105730009A81E816F90608F045C08E199F099E83E4
:105740008D83D12CC12CC814D90408F43EC080919B
:105750008C010E944C069C0189E180932C01A89544
:10576000E216F30618F489010E191F092D813E81F6
:1057700002171307A0F4201B310B4D815E814017E7
:10578000510769F0A4EFB1E00E94AB399A0150E0F3
:1057900040E00E946D3930938A01209389010E9474
:1057A000ED2117B818B814B815B82796E0E10C9495
:1057B000EE390E940E0629813A812E5F3F4F3A83CF
:1057C0002983A3CF1E821D82BCCF0E940E069FEFAD
:1057D000C91AD90AB8CF8C3008F08C50811105C095
:1057E0008FE292E00E94FA0A1CC0813029F08230D8
:1057F00031F488EF91E0F6CF82E092E0F3CF83308E
:1058000099F08430A1F08530A9F08730B1F086306E
:10581000B9F08830C1F08930C9F08A30D1F08B30CE
:10582000D9F00C94AB0908958FE790E0DBCF84E7C3
:1058300090E0D8CF8DE690E0D5CF89EE91E0D2CF41
:105840008AED91E0CFCF85EC91E0CCCF8EEA91E06C
:10585000C9CF87E192E0C6CF8FE092E0C3CF0F932C
:10586000CF93DF9300D000D00F92CDB7DEB78FE794
:1058700090E054D41D8210921A0160E082E0C8D4F6
:1058800080911A01883009F057C00E94350983E4DD
:105890000E94A40A0E94080580917F0190918001D6
:1058A000A0918101B091820103E026E440918E0134
:1058B000BC01CD010E944D0B0E94AB0960918B0190
:1058C00080918C010E9474079093880180938701D6
:1058D0000E943B098BE391E00E94FA0A80918701C4
:1058E000909188018A3FAFEF9A0710F522E04DE1D1
:1058F0006EEF0E94300C0E94AB098D8179DB88EE3F
:1059000093E00E94F30C81110AC0809113018B3047
:1059100030F48D8174DB8D838A3F08F4ACCF0F9017
:105920000F900F900F900F90DF91CF910F910895EE
:105930008FE30E94A40ADFCF0E94D1090E943B0995
:10594000DACFAEE0B0E0E7EAFCE20C94D03982E0D6
:1059500092E0E4D380E18093800010926F0081E0B8
:1059600090E0909389008093880010928B001092B1
:105970008A0083E086BB1092820088E080938100D9
:1059800015B881E184B918B881E087B9229A89E015
:105990008093810010E020E0FAE0BF2EAA24A394B7
:1059A00081E090E0A0E0B0E089879A87AB87BC8770
:1059B00091E19D87AAE04A2E512C612C712C812FF8
:1059C00090E00A966EE170E00E945A39262EF62E7B
:1059D000621761F00E942F0982E092E00E94FA0AA9
:1059E0001982B981BF11F9C00E94AB098A2D6B2DB4
:1059F0000E943A39A92FB0E029853A854B855C850C
:105A00000E94C0396D837E838F8398872D852231D4
:105A1000B0F0692D7C2D8D2D9E2D29853A854B85E5
:105A20005C850E946D392D813E814F815885260FFE
:105A3000371F481F591F2D833E834F8358870E946D
:105A40003509312CAB1006C081E03D85323108F4B8
:105A500080E0382E3E868CE3311005C04D8582E50E
:105A6000463108F48EE30E94A40A0E9404054D8585
:105A70006D817E818F8198850E946E0C8D819E81C3
:105A8000AF81B8859E5EA548BF4FBC01CD012D8179
:105A90003E814F815885220F331F441F551F0E949E
:105AA0006D3929833A834B835C838B819C818F3F43
:105AB000910509F008F498C08DE08093810080E0A2
:105AC00094E06C01F12CE12C69817A818B819C81BD
:105AD000A70196010E946D39215031093093890048
